:100000000C94E1050C94CB190C94A4190C940D1BC1
:100010000C940D1B0C940D1B0C9409060C940906F2
:100020000C9409060C9409060C9409060C94090614
:100030000C9409060C9409060C9409060C94090604
:100040000C945A190C9409060C9428190C94021952
:100050000C9409060C9409060C9409060C940906E4
:100060000C94F2190C9409065F00030304040305C1
:1000700005100FFEFD0BFD0BFE01C20467063620C6
:1000800005008C142109B28514074ACC00220843CC
:10009000BD15112D012316A78478916024180999A4
:1000A00022C148C8140946829118002417D77C78C9
:1000B000C18A24328A5062C4222D42094D229262A2
:1000C0000C00251FBC845DC2A084284A1445A2925E
:1000D000505814138724C190281812C5629260509A
:1000E00004261BBC847D7480482C128BE2903984DA
:1000F000340A8D42329A70442B954400270641BD44
:100100001304280DD47475A19028A4B7982C18292D
:100110000ED47415C1982C26D229244A032A0B55D3
:10012000B4562929934C21002B0B778C78E1B45BD2
:10013000380D002C085275141609002D07249C1543
:1001400087002E06328514062F0DB48475996249F6
:10015000B1A4580C00300DB7845833891ABF49D464
:1001600046003109B58558129AFE44320DB78438DD
:1001700024514DAAA8DBE1103310B7843824514D27
:100180002A9491A534D284043411B78498C2B588D6
:100190002C220A894292A354483511B784389652CA
:1001A000386524994A69A40909003610B78458248F
:1001B000118D2A59A9B195242400370FB784180F3F
:1001C000C1484C2A942A4AD5003811B78438A41162
:1001D0008D6689912236A61105003910B78458140E
:1001E000518DADB222A5914424003A0772851426A0
:1001F000033B09927514268B04003C0A778CD8C106
:10020000D1F272003D08379C1877C0013E0A778C06
:1002100018E14D8B61003F0EB68437141149285305
:100220008C033501401DBD849ED6E1483692284995
:10023000482A149188229268992849867248EC20AD
:10024000024117BA849B72881C101147C4A1684CE4
:100250001813DAA2A2A864464215B9841A37259960
:100260004826523B0925428950223B8C004317BA4D
:10027000847B95C850229E03E61039440E9183C4B6
:1002800091A1AC044419BB841C87A0702415892556
:10029000628958229688255291707288014517B953
:1002A000841A078950228D885244C1A228284A9175
:1002B000468407024617B9841A078950228D88524E
:1002C00044C1A228280ACA01622A004719BB847CBB
:1002D00095D050248EC8011139480E129E4552D136
:1002E0006C488A004818BB841C348A54241549453C
:1002F00052D1412415494552915442234909B485AC
:10030000171491FE424A0EB7847944A95E441291B3
:1003100024B4064B18BB841C249230288B8AC292CA
:1003200038A02C998A86B29970422A4C17B9841A3F
:100330006439400E9003E40039400E9046A411E168
:1003400081004D24BD841E54CA74341D456411516E
:100350004416114564115148121285242151481246
:1003600012C5544622024E1CBB841CD3C934440C13
:100370004566A1902C1413A54D4241527414968CDD
:1003800023004F18BB847CC5D9482A9103E8003A62
:10039000800EA0032452D16C58035017B9841A87D9
:1003A000906C22940825B2894D0E9003E40031151B
:1003B00000511FEB6C7CC5D9482A9103E8003A80B4
:1003C0000EA0CC2422896844AC8344E1491C30014E
:1003D0005217BB841C87A06C269409658A569950D5
:1003E0002654134A6A13005312B9845A94C84C22F3
:1003F0008D482364E7319152025417BA841B8792C7
:1004000068A62D2887C82172881C2287C80134005D
:100410005518BB841CC48938240E8943E2903824C3
:100420000E8943E298305A035619BA841BB48934B2
:10043000248DC982B2A02C2A094BC29238400E11D9
:10044000025724BD841E14CA44260BC96421992C6A
:1004500026894882928824288948829288242A13EF
:10046000CBC4321900581BBB841C25CA50268C8A69
:10047000E200491C300744E480903428134E4805BC
:100480005919BA841BB48934260BCAA292B0240E1F
:100490009043E41039440EA0015A0FB8841987E143
:1004A0009036D53A230E0F035B09D4741526FD2729
:1004B000025C0FB68417D170341C0D47C3D1700095
:1004C0005D09D4741524FD27035E0F77A478E1E855
:1004D00030129388621199005F061774170760083D
:1004E00034C516326100610E7884593491585691A2
:1004F00049442B036218B9841A73801C2007C80171
:1005000092D948512294082532518404630E77848D
:100510005824118D2A8C884414006417B984BA7346
:10052000801C2007C82622D14428114A8422D16C7D
:1005300032650F78845934914478A80364A20A0084
:10054000660DB6845623896E25A16E24006710B708
:100550006CB8928A8C26A9844D57A1A4026817B959
:10056000841A73801C2007C80192D9484D2413C9EE
:1005700044320903690AA4843522E9482F046A0D2C
:10058000D56A75EA8099BE512413006B11B884199D
:10059000639D262215195122134946036C09B48420
:1005A0001523FD0B016D127E841F93D16C345253C1
:1005B0009229C994642A1C6E1079841A93D9484DE3
:1005C0002413C9443209036F0E788459349144C806
:1005D0002811C948007014A96C1A93D94851229463
:1005E00008252395991C20A6027116A96C59949090
:1005F0006822940825429168369103E40031017223
:100600000B7784179315558D3400730A768437372A
:1006100022DB0500740FA68456D1A0AC24D414119B
:10062000852600751179841AA3914C2413C944328C
:1006300091683619761078831794892C248B498217
:1006400092A8580677187D831C14CA44260BC964E7
:10065000314944129444245199582603780F7884E0
:1006600019A389484695D26292D1007914A86B17D4
:1006700094892C248B498292A8581C9404A7007A50
:100680000876841737BD1D7B0DD57476A298B6D435
:10069000A04C312A7C07B1871807027D0FD574164C
:1006A000D2A04C311A8B690BC9007E0927A43813DC
:1006B000CA040000000004FFFF0000000000002446
:1006C0000027002A000000000800020100000304C7
:1006D00007000000000000000000000000230026CA
:1006E00000290000000000250028002B000404045D
:1006F00004040404040202020202020303030303CB
:1007000003010204081020408001020408102001A7
:1007100002040810205F00030304040304050C0B0B
:10072000FFFE08FE08FE01760345048B200500CC81
:1007300009210882C4894B8C002208336D8B884ABA
:100740000023128744BC483012324582919029120E
:100750008CC4002410A53CAB5825220931452491B6
:100760005A080025198AC41D914C2289491225294D
:10077000224944128C486221492C2601261188C442
:100780002CA92428894A2332911265220127063197
:100790006D8A01280CA4B4BA504822D2260B06292F
:1007A0000CA4B48A604C498B280D002A0B555CAB15
:1007B000949449A610002B0A554CAB60A8140C0168
:1007C0002C0842B4098A04002D06135C8A012E0607
:1007D00022C409022F0C84C4BAA45828168AC50062
:1007E000300B85449B89842F920900310984451B75
:1007F000C9482F04320D85449B898422138962875E
:1008000001330E85449B89842212522892090034B8
:100810000C8544AB95882432BA8906350C85448B07
:100820008324C842914C00360D85449B89844691AF
:10083000B0482600370B84448B432C140B690138D5
:100840000E85449B898422994858241300390D85CC
:10085000449B89844542A34826003A0752C40912A2
:10086000013B0872B4091245023C0856CC4B91B2C8
:10087000023D0735548B6A013E0956CC0BB19222DA
:10088000003F0D85449B899A481407C944004014D1
:10089000A93CBDA14C148D8428FA49228A43E42046
:1008A000120041108943CC38603C0D0943B25350CB
:1008B0003222421087440C938A485252114944878D
:1008C0000800430E8744AC491A71AA18098628000B
:1008D000441288C40C9B2C2493C82432894C228B4C
:1008E0009800450F86C40B8B28220991242151447E
:1008F00074461086C40B8B28228A484224494846F5
:1009000002470F8744AC491A712AAA4962A24900DA
:10091000481189440D0A452692894E32914C249300
:1009200030490984C40A8A482F044A0C86C42B9A89
:100930005045979068044B1189C40C925A4C1494FA
:10094000448B22990A69004C0B86C40B9A50A788E5
:10095000E8004D198B440E1A65368A4822A2882475
:10096000228A4822A29052486522214E1488C40C43
:10097000D944161A8528A10829348A496611004FDE
:100980000D8744AC598A8C9B24161B01500F874459
:100990000C938A48229294A4421A005114983CACB9
:1009A000612C2493C824320945241152A21200520A
:1009B0000D88C40C9B48A7584DA48532530C86C49F
:1009C0009B255AB1469A4C00540C86C48B8B96904A
:1009D000501B0500551388C40CCA44169285642127
:1009E00059481692C54800561288C40CCA4416923B
:1009F000C5244149501215CB0057198B440E8A6407
:100A000022128594429288242489486293A14C281A
:100A10001301581188C40CCA44169A04C7C3C828C5
:100A2000269910591088C40CCA441693042551B154
:100A30002A09005A0A86C48B9B6CB44D765B08A3C6
:100A4000348A8A7E195C0C84C48A5830168C0563FB
:100A5000015D08A3348A897E295E0B6554AB606C06
:100A6000144993055F0616340B03600723740A913B
:100A700000610854C48A998462620D86C40BA11671
:100A8000C984449A4C00630B55449B8968268A4C60
:100A900000640B86C4BBA1CA8965A20065095544E0
:100AA0009B89E42024660D85C4AA89242222C99446
:100AB0002800670C8634CBD048A26966BB00680B5F
:100AC00086C40BA116C984C424690A84C41A91740B
:100AD000A485006A0AA3B41AB5892E14006B0C868B
:100AE000440BA11609892451196C0884C48A91BE4B
:100AF000106D0E5AC40D8948B24212914424056EFD
:100B00000A56C40B89644262126F0A56C41B8A8853
:100B1000494201700D76B40B896442225D84330032
:100B2000710F77B49B8A482292484612A9900072AE
:100B30000954C40AC9490900730854C49A12A90285
:100B4000740973449A88A4A224750956C40B11979A
:100B50008902760C56C48B894A4812138A00770F93
:100B600059448D892E21892426114A4400780B5638
:100B7000C48B894A4C165119790E76B48B894A4830
:100B800012138A6642007A0955440B8B48C9007BD0
:100B90000BA4B42A89484526D2267C0781468B437C
:100BA000007D0CA4B40A99484D22D222027E082668
:100BB000DC9B89640200000004FFFF000000851B2D
:100BC0005E2211241FBECFEFD8E0DEBFCDBF14E000
:100BD000A0E0B1E0E8E4F8E402C005900D92A4338F
:100BE000B107D9F727E0A4E3B4E001C01D92A93B07
:100BF000B207E1F715E0C0EED5E004C02197FE0191
:100C00000E94C422CF3DD107C9F70E94F21C0C9468
:100C100017240C940000662329F06A3019F0862FFF
:100C200090E008958FEF9FEF0895CF92DF92EF92BB
:100C3000FF920F931F93CF93DF93EC01842F877064
:100C4000E1E0F0E0082E01C0EE0F0A94EAF73E2F33
:100C50007E019AE7E90EF11CD7019C9110E09230D9
:100C600018F41E2F913029F150E0487FE9ADFAAD1C
:100C7000C880D980D60150969C91949F6001959F21
:100C8000D00C11246C0D7D2D711DDF01A60FB71F37
:100C9000011115C08C91812B83278D932150D1F7A1
:100CA000DF91CF911F910F91FF90EF90DF90CF9048
:100CB000089530E0D9CF110F330F222389F39C918F
:100CC000912B93279C938F5F877021508111F3CFD5
:100CD0009DADA90FB11DF7019081923028F491309C
:100CE00009F031E011E0E9CF31E0E7CF80E008958D
:100CF00080E008958091AA069091AB06892B59F166
:100D0000E091F105F091F20586E0E039F80719F17C
:100D1000309739F0A389B4899C918589809589237E
:100D20008C938091AE068E7F8093AE061092F00574
:100D30001092EF0580E996E09093F2058093F1051B
:100D4000E091A306F091A40680819091A506892BDD
:100D5000808381E0089580E008958230D8F4E82F00
:100D6000F0E0EE0FFF1FED5FFE4F2AE635E1318325
:100D70002083813041F0809169008C7F8160809375
:100D80006900E89A089580916900837F8460809368
:100D90006900E99A0895EF92FF920F931F93CF9302
:100DA000DF9393E1899FE0011124C753DA4F6A89E9
:100DB00084E0689FF0011124E355FA4FE280F3804C
:100DC00000811181E889F9898DEA95E0099594E01F
:100DD000899FF0011124E355FA4F4281538120810C
:100DE00031818A8BC901801B910B9A012E193F0911
:100DF0003B832A835B874A87F986E8861D870C87B1
:100E000097FD19C041E050E0598348831F861E8634
:100E1000FC01B9010E947A227D836C83CF01B90164
:100E20000E947A229F838E83DF91CF911F910F9131
:100E3000FF90EF9008954FEF5FEF59834883EE27BF
:100E4000FF27E81BF90B41E050E0421B530B5F8783
:100E50004E87DFCFEF92FF920F931F93CF93DF93D5
:100E60008C0183E1689FF0011124E355FA4F86A5B8
:100E70007F019CE2E90EF11CEF01AE96D701ED91E6
:100E8000FC91682F8DEA95E00995B4E08B9FF00105
:100E90001124E355FA4F228133812017310711F4D1
:100EA0008883ECCFDF91CF911F910F91FF90EF904E
:100EB00008956F5FFC01808D681708F060E0862F51
:100EC00008956150FC01808D681710F06FEF680F76
:100ED000862F08959B01DC011896ED91FC9141E06D
:100EE00067E10994AF92BF92CF92DF92EF92FF92A7
:100EF0000F931F93CF93DF936C017B018B01040F42
:100F0000151FEB015E01AE18BF08C017D10759F0DD
:100F10006991D601ED91FC910190F081E02DC6011F
:100F20000995892B79F7C501DF91CF911F910F9119
:100F3000FF90EF90DF90CF90BF90AF900895909387
:100F40001905809318050895FC01538D448D252FB4
:100F500030E0842F90E0821B930B541710F0CF9653
:100F6000089501970895FC01918D828D981761F085
:100F7000A28DAE0FBF2FB11D5D968C91928D9F5F9C
:100F80009F73928F90E008958FEF9FEF0895FC017B
:100F9000918D828D981731F0828DE80FF11D858D2E
:100FA00090E008958FEF9FEF0895FC01918D228DC1
:100FB000892F90E0805C9F4F821B91098F73992746
:100FC000089583EF95E00E94D50721E0892B09F46D
:100FD00020E0822F089580E090E0892B29F00E9484
:100FE000E10781110C9400000895FC01A48DA80F65
:100FF000B92FB11DA35ABF4F2C91848D90E001965B
:101000008F739927848FA689B7892C93A089B1897A
:101010008C91837080648C93938D848D981306C01B
:101020000288F389E02D80818F7D80830895EF927F
:10103000FF920F931F93CF93DF93EC0181E0888F92
:101040009B8D8C8D98131AC0E889F989808185FF62
:1010500015C09FB7F894EE89FF896083E889F98904
:1010600080818370806480839FBF81E090E0DF9106
:10107000CF911F910F91FF90EF900895F62E0B8D59
:1010800010E00F5F1F4F0F731127E02E8C8D8E1114
:101090000CC00FB607FCFACFE889F989808185FF7B
:1010A000F5CFCE010E94F507F1CFEB8DEC0FFD2FB0
:1010B000F11DE35AFF4FF0829FB7F8940B8FEA8936
:1010C000FB8980818062CFCFCF93DF93EC01888D45
:1010D0008823B9F0AA89BB89E889F9898C9185FDB3
:1010E00003C0808186FD0DC00FB607FCF7CF8C9141
:1010F00085FFF2CF808185FFEDCFCE010E94F507FD
:10110000E9CFDF91CF910895833081F028F48130C9
:1011100099F08230A9F008958730A9F08830C9F09D
:101120008430B1F4809180008F7D03C08091800075
:101130008F7780938000089584B58F7784BD08955C
:1011400084B58F7DFBCF8091B0008F778093B00006
:1011500008958091B0008F7DF9CFCF93DF93282F32
:1011600030E0F901EB53F94F8491F901EF5FF84F4B
:10117000D491F901E351F94FC491CC23A1F081112D
:101180000E948408EC2FF0E0EE0FFF1FE752F94FAA
:10119000A591B491EC91ED2381E090E009F480E019
:1011A000DF91CF91089580E090E0FACF1F93CF9325
:1011B000DF93282F30E0F901EB53F94F8491F901C7
:1011C000EF5FF84FD491F901E351F94FC491CC236B
:1011D000A9F0162F81110E948408EC2FF0E0EE0F89
:1011E000FF1FED51F94FA591B4918FB7F894EC9191
:1011F000111108C0D095DE23DC938FBFDF91CF9112
:101200001F910895DE2BF8CFCF93DF9390E0FC0180
:10121000EF5FF84F24918351994FFC01849188230B
:10122000C9F090E0880F991FFC01E554F94FA59192
:10123000B491FC01ED51F94FC591D49161110DC0EC
:101240009FB7F8948C91209582238C9388812823D2
:1012500028839FBFDF91CF910895623051F49FB7EB
:10126000F8943C91822F809583238C93E8812E2BD8
:10127000EFCF8FB7F894EC912E2B2C938FBFEACF42
:101280003FB7F8948091120590911305A091140531
:10129000B091150526B5A89B05C02F3F19F0019602
:1012A000A11DB11D3FBFBA2FA92F982F8827BC01C0
:1012B000CD01620F711D811D911D42E0660F771FE8
:1012C000881F991F4A95D1F708958F929F92AF92E8
:1012D000BF92CF92DF92EF92FF926B017C010E944E
:1012E00040094B015C01C114D104E104F104B9F0DF
:1012F0000E944009681979098A099B09683E734070
:101300008105910580F321E0C21AD108E108F108B6
:1013100088EE880E83E0981EA11CB11CE4CFFF90DC
:10132000EF90DF90CF90BF90AF909F908F900895F7
:10133000089585ED8093BC008091BC0084FDFCCFB6
:101340001092E70408952091C304260F3327331F1A
:1013500021323105ECF42091E704FC0190E080E0BB
:10136000243069F082E00895A091C3042191AC017A
:101370004D555B4FA40FB52FB11D2C9301968617C9
:1013800098F38091C304680F6093C30480E00895CC
:1013900081E0089508958FEF9FEF08958FEF9FEFFD
:1013A00008958091A20490E0919581959109089506
:1013B000CF93DF93CB01EA01642F0E94A309CE01F2
:1013C000DF91CF910895CF93DF931F92CDB7DEB712
:1013D000698361E0CE0101960E94A30981E090E05B
:1013E0000F90DF91CF9108952091F1053091F20592
:1013F0002817390771F49091EF058091F00598173F
:1014000041F0E091EF05F0E0EE59FB4F808190E074
:1014100008958FEF9FEF0895EF92FF920F931F9320
:10142000CF93DF93DC015C96ED90FC905D97E11427
:10143000F10479F481E090E013969C938E931297D7
:1014400090E080E0DF91CF911F910F91FF90EF909E
:1014500008955196ED91FC91529750968C9150972A
:10146000982F90950FB75E962C915E97122F127061
:1014700021FD6095F8942081112319F1282B2083F8
:10148000E7012197F1F728E0462F50E0308160FF17
:101490001AC0382B3083E7012197F1F7BA0175950F
:1014A0006795215089F7112381F0808189238083FA
:1014B0000FBF5C968D919C910197F1F781E090E0D0
:1014C000C1CF2923DCCF3923E5CF9081892BEFCF02
:1014D0002091F1053091F2052817390771F48091B8
:1014E000F0052091EF0590E0805C9F4F821B9109F1
:1014F00060E470E00E947A22089590E080E0089510
:101500002091F1053091F20528173907B9F490912F
:10151000EF058091F005981789F0E091EF05F0E074
:10152000EE59FB4F80812091EF0530E02F5F3F4F58
:101530002F7333272093EF0590E008958FEF9FEFEF
:101540000895DC011A96ED91FC9130E020E00994B9
:10155000DC011696ED91FC9130E020E040E069E17D
:101560000994DC011696ED91FC9130E020E040E01A
:1015700068E109949A01DC011696ED91FC91462FE1
:1015800067E10994EF92FF920F931F93CF93DF933C
:101590001F92CDB7DEB77C018B01D8016C9167310A
:1015A00029F150F46531A0F40F90DF91CF911F9194
:1015B0000F91FF90EF9008956A3118F16E3FA1F7F7
:1015C000F8014181498369E2C7010E94A10A0BC069
:1015D000F80141814983D7011696ED91FC9130E0E5
:1015E00020E0C70109950E5F1F4FD7CFF801818119
:1015F0008983AE014F5F5F4F61E0C7010E94BA0A65
:10160000F2CF0F5F1F4FD7011696ED91FC9130E09E
:1016100020E040E0C7010995C0CF462FDC011696B7
:10162000ED91FC9130E020E066E10994462FDC0169
:101630001696ED91FC9130E020E065E10994EF927F
:10164000FF920F931F93CF93DF93EC01042F790147
:101650006D3009F446C050F46B30C9F1693009F4BB
:101660009FC06A3009F465C080E046C06E3009F45E
:1016700052C06F3099F70E94B10AF7011381110F20
:10168000110F110F6C89160F60E4CE010E94160B2A
:10169000612F62956F706061CE010E94160B612F01
:1016A0006F70CE010E940D0BF7016481606BCE015B
:1016B0000E940D0BF701408151816281660F660F18
:1016C000660FCE010E94BA0A0150A1F72EC06CE24B
:1016D00071E0442311F067E271E0CE010E94C20A7A
:1016E0000AC0411110C060E271E00E94C20AE881A4
:1016F000F98182898C8B81E0DF91CF911F910F91CD
:10170000FF90EF90089569E171E00E94C20AE881BC
:10171000F9818389EFCF0E94B10A61E8CE010E946E
:10172000160B602FCE010E940D0BCE010E94A80A5D
:10173000E2CFEA85FB8530E020E040E068E2CE01C0
:101740000995EE81FF8130E020E040E064E1CE01C8
:10175000099541E06BE4CE010E94A10AE881F9817C
:10176000448169E2CE010E94A10A40E06BE4CE010F
:101770000E94A10AE881F981448169E2CE010E94B8
:10178000A10A41E06BE4CE010E94A10AE881F9813F
:10179000458169E2CE010E94A10A61E371E09DCF1B
:1017A00086E691E0998388831C8AA5CF41E06DE4A9
:1017B0000C94A10ADC01ED91FC9145856DE20C943D
:1017C000A10ACF93DF93EC0141E06CE40E94A10AEF
:1017D000CE01DF91CF910C94DA0BCF93DF93EC0124
:1017E000662379F00E94D60BCE010E94DA0BCE015F
:1017F0000E94E10B40E06CE4CE01DF91CF910C94AC
:10180000A10A40E06DE40E94A10AEECF1F93CF939E
:10181000DF93EC01162F60780E94ED0B612F60744E
:10182000CE010E94ED0B612F6072CE010E94ED0B84
:10183000612F6071CE010E94ED0B612F6870CE01A7
:101840000E94ED0B612F6470CE010E94ED0B612FA1
:101850006270CE010E94ED0B612F6170CE010E947B
:10186000ED0BCE010E94D60BCE010E94DA0BCE0109
:101870000E94E10BCE010E94D60BCE010E94DA0B32
:1018800040E06CE4CE01DF91CF911F910C94A10A4E
:10189000DC011896ED91FC9130E020E040E069E138
:1018A0000994DC011896ED91FC9130E020E040E0D5
:1018B00068E10994CF93DF931F92CDB7DEB76983B8
:1018C000BE016F5F7F4F0E946A070F90DF91CF913B
:1018D0000895EF92FF921F93CF93DF93EC01162FA1
:1018E0007A010E94510C60E4CE010E945A0CE885F6
:1018F000F9859701412F67E1CE010995CE01DF916E
:10190000CF911F91FF90EF900C94480CEF92FF92B3
:101910001F93CF93DF93EC01142F7901663181F18E
:1019200038F4643109F44BC0653179F080E022C0AD
:101930006831C9F150F16931C9F780916104882398
:1019400091F1CE010E94480C2EC080916104882341
:1019500019F0CE010E94480CCE010E94510C60E0AB
:10196000CE010E945A0C612FCE010E945A0C81E0D8
:1019700080936104DF91CF911F91FF90EF900895C4
:10198000642F0E945A0C81E0F5CF80916104882376
:1019900019F0CE010E94480CA701193138F4612FCB
:1019A000CE010E94690C10926104EDCF68E1CE0176
:1019B0000E94690C185188E1E80EF11CEDCF8E8968
:1019C0008F3F11F488E78E8BE885F9859701412FC9
:1019D00064E1CE01DF91CF911F91FF90EF900994C8
:1019E0000F93DC01DF963C91DF97431BD596ED9179
:1019F000FC9109950F910895CF93DF93FC01A0818D
:101A0000B18183AD982F990F990F990F96AF50968A
:101A10009C915097903208F09FE1990F990F990F80
:101A200095AF24AD922F990F990F990F97AF5196BB
:101A30003C915197682F620F7727771F361717064B
:101A400014F4832F821BEF01C05CDF4F9883219633
:101A5000880F880F880F890F8883219680EF8883ED
:101A600054968D919C915597813F910508F48883F8
:101A7000ED5BFF4F56968C918083DF91CF91089557
:101A8000FC012085318582859385281739072CF53F
:101A90004485558584819581480F591F5587448712
:101AA0008685978566817781860F971F97878687BA
:101AB0001816190664F460817181460F571F558707
:101AC000448742815381841B950B978786872F5FBC
:101AD0003F4F3187208781E0089580E008950F937C
:101AE000FC01EA5BFF4F308131965081451730F49D
:101AF000301738F0041728F080E013C03017D0F307
:101B0000FBCFFC01EC5BFF4F30818B5B9F4FFC01F7
:101B10008081681740F481E0321718F081E02617C1
:101B200058F70F9108953217C8F3E6CF2F923F92DE
:101B30004F925F926F927F928F929F92AF92BF92DD
:101B4000CF92DF92EF92FF920F931F93CF93DF9389
:101B5000EC014C0184E4880E911CF4011082329750
:101B600020805E01F5E4AF0EB11CF50120823597AF
:101B700030806E01F6E4CF0ED11CF601308235972D
:101B800040807E01F7E4EF0EF11CF70140823496AD
:101B90001081329760803196708032975080012F8B
:101BA000262D472D652DCE010E946F0DCC58DF4F9D
:101BB000811114C01882DF91CF911F910F91FF9076
:101BC000EF90DF90CF90BF90AF909F908F907F90DD
:101BD0006F905F904F903F902F90089581E08883A1
:101BE000552011F0F4015082621410F4F501608266
:101BF000371410F4F60170821415E8F6F70110831B
:101C0000DACF0F93DC01802FFD01EC58FF4F90815C
:101C10009923E9F12223D9F1223020F0023079F51D
:101C20006F5F621B082F0170FD0180FD32C0EA5B0F
:101C3000FF4F8081481758F131968081481738F559
:101C40003297908131978081260F2617F0F469171B
:101C5000D8F42FEF290F8217D0F4681708F4682FF3
:101C6000291708F4922F961BD796ED91FC91D897DF
:101C70000480F581E02D292FCD01099508C003309E
:101C800089F64F5F421BCECF682F691720F30F9163
:101C90000895EC5BFF4F80816817C8F3319680810F
:101CA0006817A8F73296908131978081240F241706
:101CB00078F4491760F42FEF290F821740F748177F
:101CC00008F4482F291708F4922F941BCDCF482FE2
:101CD0004917E8F6F2CF0F9390917B076917A0F0B0
:101CE00090917C07691780F490917907891760F0CB
:101CF00090917A07891740F4462F682F00E021E081
:101D000085E397E00E94010E0F9108950F931F93B2
:101D1000CF93DF939093AE058093AD057093B0059C
:101D20006093AF0585E190E09093B2058093B10593
:101D30005093B4054093B3053093B6052093B50591
:101D40001093B8050093B70583E08093C50589E536
:101D500097E09093ED058093EC0581E697E09093F2
:101D6000DA058093D905EA0181E04617570714F098
:101D7000EB0180E0401751070CF4A8014617570704
:101D80000CF4AB010C171D0714F4E80182E08093FA
:101D9000DB054C1B5D0B5093C8054093C705452BD5
:101DA00009F485C08093EE0561E0CE010E942A0708
:101DB00060E0CE010E942A0781E08093C605A091D1
:101DC000DB0584E0A89FD0011124A355BA4FE09110
:101DD000EE0584E0E89FF0011124E355FA4F2D91C0
:101DE0003C91808191812817390709F454C01092E1
:101DF000C605C091C705D091C80580E00E94CB06FA
:101E000081E00E94CB068091C605882341F089ECD1
:101E100095E00E94400D8CED95E00E94400D4091B0
:101E2000E4055091E505809178078417150611F1B6
:101E300008F18091D5059091D6056091E8057091E3
:101E4000E90586179707C4F577FD14C02091770739
:101E500030E08217930774F497FD80E02617370768
:101E60000CF4B901262F281B00E0682F85E397E0CA
:101E70000E94010E89EC95E00E94400D882379F1C3
:101E80008CED95E00E94400D882369F121971C1686
:101E90001D062CF20CC08091C7059091C8050197D2
:101EA0009093C8058093C705892B09F0A2CFDF91D5
:101EB000CF911F910F91089597FDDCCF2091770767
:101EC00030E062177307B4F677FF02C090E080E05D
:101ED000821793070CF49C01261B00E0C7CF80E01B
:101EE0000E94CB06C7CF81E00E94CB06C9CFEF92FC
:101EF000FF920F931F93CF93DF93689FE001699F39
:101F0000D00D11247E018EE1E80EF11CBE01665E4B
:101F10007F4F87012BE030E0A70186E090E00E9430
:101F2000860E0C5F1F4F26E030E0A701B7018BE063
:101F300090E00E94860EDF91CF911F910F91FF904C
:101F4000EF900895213039F020F0223031F0840FE5
:101F50000895860F0895841B0895861B08952130E7
:101F600039F020F0223031F0861B0895840F089557
:101F7000860F0895841B08955F926F927F928F92CF
:101F80009F92AF92BF92CF92DF92EF92FF920F9308
:101F90001F93CF93DF935C01162F642EEC01C05B7F
:101FA000DF4FDC80ED804C018AE7880E911CFE80BB
:101FB000FD18C12EF11608F4CF2C5B800C85202F64
:101FC0004E2D6D2D8A810E94A20F782E202F4E2D2E
:101FD0006D2D852D0E94AF0F482F662071F08A85E8
:101FE000F40180832C2D672DC5010E94010E1F1561
:101FF00048F01F19E394D12CDACF89858111F7CFEE
:102000008B85EECF1D0D1C83ED82DF91CF911F914B
:102010000F91FF90EF90DF90CF90BF90AF909F9087
:102020008F907F906F905F900895DC0118964C918F
:102030001897ED91FC911197249130E0042E02C085
:10204000359527950A94E2F7842F860F883068F03B
:1020500031961196FC93EE93E49198E0941B01C0A5
:10206000EE0F9A95EAF72E2B885018968C938FEFE7
:102070009FEF01C0880F6A95EAF780958223089543
:10208000FC01E60FF11D849190E0982F882731968E
:10209000E4918E0F911D0895CF93DF9320918107D6
:1020A000309182072817390709F490C0EC0190930A
:1020B000820780938107FC01849180939207319677
:1020C000E491E0939307FE013296E491E093940744
:1020D000FE013396E491E0939507FE013496E49176
:1020E000E0939607FE013596E491E0939707FE0191
:1020F0003696E491E0939807FE013796E491E093D9
:102100009907FE013896E491E0939A07FE0139960B
:10211000E491E0939B07FE013A96E491E0939C07DB
:10212000FE013B96E491E0939D07FE013C96E4910D
:10213000E0939E07FE013D96E491E0939F07FE0128
:102140003E96E491E093A007FE013F96E491E09370
:10215000A107FE017096E491E093A20761E1CE0130
:102160000E9440109093A4078093A30763E1CE01DF
:102170000E9440109093A6078093A50765E1CE01C9
:102180000E9440109093A8078093A7078091810731
:1021900090918207892BD1F080919F078093AB07A4
:1021A0004091A0074093AC079091AA07992371F042
:1021B000913079F49091A107891714F49093AB07AB
:1021C0008091A207841714F48093AC07DF91CF911C
:1021D000089530919C0720919E07082E000C990BC2
:1021E000622F022E000C770B630F711D37FD7A955D
:1021F000861797071CF4320F3093AB07241734F778
:102200002093AC07E3CF6F927F928F929F92AF9211
:10221000BF92CF92DF92EF92FF920F931F93CF93D3
:10222000DF93EC01062F142F7901FC01E45AFF4FD4
:102230008081813009F445C0D0F1823009F44BC06F
:10224000833009F452C0FE01EE5AFF4F00833196ED
:10225000108337978081918147962FEFE216F10422
:1022600011F008F0E6C0E1E6EE16F10408F447C00C
:10227000FE01E059FF4F20813181820F931F9C01A5
:102280002F5F3F4FF9014491411142C0712C872DBE
:10229000DF91CF911F910F91FF90EF90DF90CF9042
:1022A000BF90AF909F908F907F906F900895FE01A8
:1022B000E25BFF4F0190F081E02DCE010995180FF0
:1022C000C2CFFE01E25BFF4F0190F081E02DCE0115
:1022D0000995081BB8CFFE01E25BFF4F0190F0812A
:1022E000E02DCE010995181BAECFFE01E25BFF4F3A
:1022F0000190F081E02DCE010995080FA4CFF1E403
:10230000EF16F10408F4BBCFFE01E259FF4FB3CF43
:10231000FC0144914E151F0409F086C002960097F7
:1023200009F4B4CF7E01F0E5EF0EF11CF7019183C3
:102330008083108671966081C7010E941510F70195
:10234000868372966081C7010E941510A82EF7013E
:1023500087836E01FAE7CF0ED11CF6019081F70159
:10236000928781E0911180E0F7018387FE01ED59AA
:10237000FF4FB0806B2DC7010E941510882EFE0103
:10238000EC59FF4F1081612FC7010E941510982E44
:10239000FE01EB59FF4F0081602FC7010E9415100D
:1023A000015041E050E09A0101C0220F0A95EAF77E
:1023B000782E721AF701068110160CF068CFBA94C5
:1023C000CA0101C0880FBA94EAF7881AB4849A0C3B
:1023D000115001C0440F1A95EAF7F42FF9199F2EF6
:1023E0002B2D4F2F682DF70182810E94A20F182FED
:1023F000F70182832B2D492D682D83810E94AF0F19
:10240000F7018383F1E0BF1609F47CC0BF1608F41E
:102410003FC022E0B21609F47BC093E0B91609F47C
:1024200082C0082F212F38C0F9012491820F911DFD
:1024300026CFFE01EE58FF4F00811181080F191FB2
:10244000680160E0C6010E944010080F191F62E099
:10245000C6010E944010F4E0CF0ED11C8E159F05DE
:1024600080F3F801849190E0982F88273196E491C9
:102470008E2B009709F40ACFE816F90619F4C80163
:1024800003964DCFF8013296E4910E0F111DE9CF5E
:10249000202F210F082F0A0D482F612FCE010E94F7
:1024A0006F0D882309F4F3CEF701148215828E0193
:1024B000015A1F4F4E01F0E68F0E911CF80160810A
:1024C000C7010E941510682EF4016081C7010E94A7
:1024D0001510B82E40E0662DCE010E94BC0F41E0E1
:1024E0006B2DCE010E94BC0F61E0C7010E94151048
:1024F0008111F0CFF70185818A1504F38285F601F9
:102500008083C5CEBA1821E0210F080F1B0DC4CF60
:1025100091E0392F301B21E0210F9A1901E0080FBB
:10252000890F130FB9CF212F2A0D982F901B01E08F
:10253000080F81E0890FB0CFFF920F931F93CF93C5
:10254000DF93C82FD62F10924E078A01F12CF80185
:1025500061918F01E0913707F091380785E397E0AB
:1025600009958F3F9807F1F08E3F2FEF920779F38F
:102570009C014D2F6C2F85E397E00E9403119091F1
:102580009107913049F030F0923041F0933041F0B2
:10259000F80EDDCFC80FFCCFD80FFACFC81BF8CF8D
:1025A000D81BF6CF8F2DDF91CF911F910F91FF9008
:1025B00008952BE036E030933807209337070C94CA
:1025C0009C12CF93DF93EC016CAFEFA9F8AD0190B3
:1025D000F081E02D0995EFA9F8AD0280F381E02D9F
:1025E000CE01DF91CF910994AF92BF92CF92DF924B
:1025F000EF92FF920F931F93CF93DF9300D000D001
:102600001F92CDB7DEB78C01DC01DB96AC90DB9777
:10261000DC96EC90DC97ED91FC91B188FE2CD12CEE
:10262000C12CD801ED91FC9111978089D9962D91FB
:102630003C911C82FD828B83B8E08B9FC0011124EA
:102640008C9DA0018D9D500D9C9D500D1124240F3B
:10265000351F3A832983D8011496ED91FC919E0190
:102660002F5F3F4F41E06FE0C8010995F3948F2D34
:102670008E198A1528F4BFEFCB1ADB0AFB1488F2F7
:102680000F900F900F900F900F90DF91CF911F91AF
:102690000F91FF90EF90DF90CF90BF90AF90089593
:1026A000EF92FF921F93CF93DF93EC01142F7901E8
:1026B000683151F130F46431D1F06731A9F080E034
:1026C00006C0693109F443C06032C9F781E0DF9187
:1026D000CF911F91FF90EF900895F70161917F01D5
:1026E000CE010E94060C11501111F7CFEFCF41E03F
:1026F0006CE40E94A10A41E06DE4CE010E94A10AAF
:10270000CE010E94DA0BE2CF8F89882349F0CE01F7
:102710000E94D60BCE010E94DA0BCE010E94E10B83
:10272000CE010E94D60B40E06DE4CE010E94A10ACA
:10273000CE010E94DA0B40E06CE4CE010E94A10AB7
:1027400081E08F8B6E89CE010E94060CBFCF40E0E6
:102750006DE40E94A10ACE010E94DA0BCE010E9414
:10276000E10BCE010E94D60BCE010E94DA0B1F8A2C
:10277000ADCF0F931F93CF93DF938C01C62F642FA0
:10278000CC32E8F4CA3208F041C0C83271F1C93223
:1027900009F442C080E0C034D0F1CF73F801EC0FEF
:1027A000F11D878D8F3F91F1C031E0F00E94AD089F
:1027B00021E0892B09F420E0F801228F27C0CD32D7
:1027C00089F140F384EB8C0F823020F7CF73C00F78
:1027D000D12FD11D8F8D411133C061E00E940409BA
:1027E00060E08F8D0E94D60811C0015E1F4FD0E0BF
:1027F000F80181918F018F3F31F061E0D03108F015
:1028000062E00E940409DF5FD63191F781E0DF9139
:10281000CF911F910F91089570E090E080E00E94A9
:102820006509F4CF85E090E0433010F082E090E05D
:10283000880F991F880F991F05970197F1F7E6CF29
:1028400062E00E940409E2CFCF93DF93EC0188E6B7
:1028500090E00E944C10AE016BE088E20E94D91219
:10286000C0E06FE08C2F0E946B0ECF5FC038C9F7BD
:10287000DF91CF910895CF92DF92EF92FF920F9365
:102880001F93CF93DF936C01EB017B01E40EF51EE8
:1028900010E000E0CE15DF0561F06991D601ED9101
:1028A000FC910190F081E02DC6010995080F191FD8
:1028B000F1CFC801DF91CF911F910F91FF90EF9061
:1028C000DF90CF9008950F931F93CF93DF93EC0188
:1028D0008C010C5F1F4FFC01E058FF4F0190F0810D
:1028E000E02DC80109958E3F2FEF920770F4FE018D
:1028F000ED57FF4FCE57DF4F9C0140816881C801E3
:102900000E9403119881890F888381E090E0DF9114
:10291000CF911F910F910895089590E080E0089560
:10292000FB0101900020E9F73197AF01461B570BDF
:10293000DC01ED91FC910280F381E02D09948F92EE
:102940009F92AF92BF92EF92FF920F931F93CF93FC
:10295000DF93CDB7DEB7A1970FB6F894DEBF0FBEF9
:10296000CDBF7C01FA01CB0119A2223008F42AE084
:102970008E010F5D1F4F822E912CB12CA12CBF0117
:10298000A50194010E948E22F901CA016A300CF55A
:10299000605DD8016E938D01232B242B252B79F7B5
:1029A00090E080E0109721F0BD01C7010E949014D3
:1029B000A1960FB6F894DEBF0FBECDBFDF91CF91C9
:1029C0001F910F91FF90EF90BF90AF909F908F90CD
:1029D0000895695CDECFCF93DF93482F50E070E01D
:1029E00060E02AE083EF95E00E949F14EC0164EB25
:1029F00071E083EF95E00E9490148C0F9D1FDF9192
:102A0000CF910895CF92DF92EF92FF92CF93DF9311
:102A10006C01990FEE08FF08F7FE23C06DE283EF0B
:102A200095E00E941708EC0144275527BA014C197C
:102A30005D096E097F092AE083EF95E00E949F14EB
:102A4000C80FD91F64EB71E083EF95E00E949014EA
:102A50008C0F9D1FDF91CF91FF90EF90DF90CF9073
:102A600008952AE0B701A60183EF95E00E949F1424
:102A7000EC01E8CF0F931F93CF93DF93EC010E94FB
:102A800090148C0164EB71E0CE010E949014800FD1
:102A9000911FDF91CF911F910F910895FC01268125
:102AA0003781808591858217930761F0D901AF77CF
:102AB000BB27AE0FBF1F1A968C912F5F3F4F3783F6
:102AC0002683089567EB71E083EF95E00E943A1545
:102AD0008FEF0895AF92BF92CF92DF92EF92FF9265
:102AE0001F93CF93DF93C0911605D091170588816E
:102AF0000E94AD08182F8A810E94AD08880F180F18
:102B0000888599852E813F81821B930B80389105A2
:102B100034F06FEC71E083EF95E00E943A15288560
:102B20003985F901EF77FF27EC0FFD1F12872F5F23
:102B30003F4F39872887133009F019C18E819F8153
:102B40002817390709F462C0CE010E944E1580FB98
:102B5000EE24E0F8F12C81FBCC24C0F8D12C74E0F9
:102B6000A72EB12C10E1EC14FD04E9F481E0E81685
:102B7000F10409F0D2C0288539858E819F812817FC
:102B8000390709F443C0CE010E944E1580FBEE24A4
:102B9000E0F8F12C81FBCC24C0F8D12C64E0A62E07
:102BA000B12C10E12BC0123109F468C00CF0BDC08B
:102BB000103151F0113109F457C068EE71E083EF24
:102BC00095E00E943A151AC0CE14DF040CF443C0FD
:102BD000EC14FD040CF444C0288539858E819F8156
:102BE0002817390799F0CE010E944E1580FBEE247C
:102BF000E0F8F12C81FBCC24C0F8D12C2885398554
:102C00008E819F812817390709F0ADCFFE01E65765
:102C1000FF4F0190F081E02D309709F4A8C02C817E
:102C20003D8180910001909101012817390709F435
:102C30009EC08C819D8190930101809300018C81C5
:102C40009D81DF91CF911F91FF90EF90DF90CF900A
:102C5000BF90AF90099452E0A52EB12C11E1BCCFEA
:102C600043E0A42EB12CFACFC114D10409F099CFBE
:102C7000E114F10409F095CF670119C0C114D10422
:102C8000C1F4E114F104C9F42E813F81888599854E
:102C90002817390709F4BACFCE010E944E1580FBE0
:102CA000EE24E0F8F12C81FBCC24C0F8D12C12E109
:102CB000A5CF81E0E816F10441F113E19FCF82E056
:102CC000A816B10459F4EC14FD040CF06ACF14E119
:102CD000CC24C394D12CF12CE12C90CF83E0A81606
:102CE000B104B9F4CE14DF040CF05BCF14E1D12CA5
:102CF000C12CEE24E394F12C81CF83E0A816B1041B
:102D000011F58C819D8101971CC0CC24C394D12CDA
:102D100048CF84E0A82EB12CD0CF123109F4AECF29
:102D200024F4103109F046CF57CF133141F214315A
:102D300009F043CF82E0A816B104F9F68C819D8199
:102D400001969D838C83288539858E819F812817E4
:102D5000390709F45BCFCE010E944E1580FBEE24AB
:102D6000E0F8F12C81FBCC24C0F8D12C1ACFDF91F4
:102D7000CF911F91FF90EF90DF90CF90BF90AF90D9
:102D8000089560E089E00E94D60867EF71E083EF64
:102D900095E00C943A1561E089E00E94D60864E061
:102DA00072E083EF95E00C943A1561E08BE00E94AD
:102DB000040960E08BE00E94D60864E670E080E0E1
:102DC00090E00E94650960E08BE00E94040962E1E6
:102DD00072E083EF95E00C943A1580E996E00E944A
:102DE000680A892B49F180E996E00E94800A8136C1
:102DF000910579F465E272E083EF95E00E943A155F
:102E000080E996E00E94800AC19739F70E94D516A2
:102E1000E4CF20919C0530919D052F373105ECF6CC
:102E2000A9014F5F5F4F50939D0540939C05245E21
:102E30003A4FF9018083D1CF0895FC01A081B1817F
:102E400050962C9183AD38E0839FC0011124289FB8
:102E5000A001299F500D112470E060E081AD92AD7A
:102E60000C94EF231F93CF93DF93EC010E94F41295
:102E70001CAD8BAD180FE881F9818189181768F0B6
:102E8000EC81FD8130E020E040E060E1CE01099579
:102E900080E0DF91CF911F910895FE01E558FF4F2B
:102EA0008081882319F0CE010E941D17612FCE0169
:102EB0000E94E11281E0EDCFCF93DF93EC01FC01A2
:102EC000E558FF4F8081882319F0CE010E941D171D
:102ED00060E0CE01DF91CF910C94E112EF92FF926E
:102EE0000F931F93CF93DF937A0110929D05109259
:102EF0009C058C01660F771FE801C60FD71FF801EC
:102F000060810E5F1F4F80E996E00E940C0A0C174B
:102F10001D07A9F70E94ED1664E670E080E090E0DE
:102F20000E946509E0919C05F0919D05E45EFA4FD1
:102F3000108221E0E114F10449F0B7018CE195E041
:102F40000E94FD2321E0892B09F420E0822FDF91EC
:102F5000CF911F910F91FF90EF900895CF93CAE00A
:102F600050E040E063E070E08091AF069091B006E1
:102F70000E946E178823E9F180911D0580939E05BC
:102F800080911E0580939F0580911F058093A00569
:102F9000809120058093A105809121058093A20551
:102FA0006DE272E083EF95E00E943A1580919E05F4
:102FB0000E94EB1480919F050E94EB148091A00564
:102FC0000E94EB148091A1050E94EB148091A20550
:102FD0000E94EB146DE272E083EF95E00E943A15D7
:102FE000ECE1F5E082E8DF011D928A95E9F7CF91E7
:102FF0000895C15009F0B4CFFACF90E3843618F0A9
:1030000084569F5FFBCF90935A0490E38A3018F068
:103010008A509F5FFBCF90935B0490E381110FC0B8
:1030200090935C0410925D046BE574E08EE594E08F
:103030000E94F623109260048EE594E0089581507A
:103040009F5FECCF0F931F93CF938C01C62F85E129
:1030500097E00E944C10F801808191810E94FD1739
:10306000AC016AE08CE50E94D91249E452E06AE0C2
:103070008AE60E94D9128C2F90E00E94FD17AC01C5
:103080006AE080E7CF911F910F910C94D9120F93B2
:103090001F93CF93DF93EB01882321F0813009F454
:1030A00043C037C085E397E00E945C1702E010E060
:1030B0008BE492E00E9424148881998183309105E9
:1030C0006CF11983088385E197E00E944C1040E57C
:1030D00052E062E28BE10E94D9124EE552E060E3D9
:1030E0008BE10E94D9124EE652E06EE38BE10E9422
:1030F000D9126EE0888199810E94770F63E0CE013A
:103100000E94221885E397E00E9432178111D0CFE8
:103110008881DF91CF911F910F910895181619069C
:1031200094F219821882CFCF85E397E00E945C1752
:103130008DE792E00E94241485E397E00E94321705
:103140008111F6CFAECF8091A005877090E090936B
:10315000A8058093A7058091A10590E09093A6050E
:103160008093A5058091A205837090E09093A405BB
:103170008093A3050E94C11685E397E00E945C1727
:1031800082E892E00E94241485E197E00E944C10AE
:1031900047E852E06EE185E00E94D9128091A705D0
:1031A0009091A8050E94FD17AC016EE180E50E9498
:1031B000D9124FE852E06DE285E00E94D912809169
:1031C000A5059091A6050E94FD17AC016DE280E572
:1031D0000E94D91247E952E06FE385E00E94D912BC
:1031E0008091A3059091A4050E94FD17AC016FE3A7
:1031F00080E50E94D91285E397E00E943217811181
:10320000BFCF08951F920F920FB60F9211242F93E4
:103210003F934F935F936F937F938F939F93AF935E
:10322000BF93EF93FF9383EF95E00E94F507FF9123
:10323000EF91BF91AF919F918F917F916F915F912E
:103240004F913F912F910F900FBE0F901F901895A7
:103250001F920F920FB60F9211242F938F939F936B
:10326000EF93FF93E0910306F09104068081E091D3
:103270000906F0910A0682FD1BC0908180910C0620
:103280008F5F8F7320910D06821741F0E0910C063D
:10329000F0E0ED50FA4F958F80930C06FF91EF917F
:1032A0009F918F912F910F900FBE0F901F901895A7
:1032B0008081F4CF1F920F920FB60F9211242F939B
:1032C0003F938F939F93AF93BF9380910E059091FF
:1032D0000F05A0911005B091110530910D0523E067
:1032E000230F2D3758F50196A11DB11D20930D0513
:1032F00080930E0590930F05A0931005B0931105D0
:103300008091120590911305A0911405B0911505B7
:103310000196A11DB11D8093120590931305A093F2
:103320001405B0931505BF91AF919F918F913F9177
:103330002F910F900FBE0F901F90189526E8230F26
:103340000296A11DB11DD2CF1F920F920FB60F9200
:1033500011242F933F934F935F936F937F938F939A
:103360009F93AF93BF93EF93FF93E0910501F0918B
:1033700006010995FF91EF91BF91AF919F918F91B8
:103380007F916F915F914F913F912F910F900FBE61
:103390000F901F9018951F920F920FB60F92112445
:1033A0002F933F934F935F936F937F938F939F934D
:1033B000AF93BF93EF93FF93E0910301F09104016A
:1033C0000995FF91EF91BF91AF919F918F917F915F
:1033D0006F915F914F913F912F910F900FBE0F9082
:1033E0001F9018951F920F920FB60F9211242F93D2
:1033F0003F934F935F936F937F938F939F93AF937D
:10340000BF93EF93FF938091B900887F803609F4D2
:103410004AC0F0F5883209F4A5C018F5803109F4E6
:1034200099C0B8F4882309F4F5C0883009F492C033
:10343000FF91EF91BF91AF919F918F917F916F918C
:103440005F914F913F912F910F900FBE0F901F9062
:103450001895883109F486C0803251F78093E604CC
:1034600014C0803409F49BC040F48033B9F388332E
:10347000F9F68093E60485ECAEC0803509F483C08C
:10348000883509F494C0883499F60E949909D0CF00
:10349000883909F48AC038F5883729F050F488361D
:1034A00011F0803729F683E08093E7041092E50459
:1034B00055C0883809F479C0803919F0803809F08E
:1034C000B7CF8091E504803208F06FC0E091E50449
:1034D00081E08E0F8093E5048091BB00F0E0EB5318
:1034E000FB4F80833BC0803B39F0D0F4803A09F435
:1034F00077C0883A09F09CCF84E08093E70410926B
:10350000C4041092C304F0E0E0E009958091C30484
:1035100081110FC081E08093C3041092A30409C0FD
:10352000803C09F4A8CF883C09F4A5CF883B09F07A
:103530007FCFE091C40481E08E0F8093C404F0E05B
:10354000ED55FB4F80818093BB009091C404809126
:10355000C30429C080910C058093BB0085EC809347
:10356000BC0066CF90910B0580910A05981758F51D
:10357000E0910B0581E08E0F80930B05F0E0E651A2
:10358000FB4F8081E9CFE0910B0581E08E0F8093A6
:103590000B058091BB00F0E0E651FB4F80839091DA
:1035A0000B0580910A059817C8F285E8D8CFE091FD
:1035B0000B0581E08E0F80930B058091BB00F0E03E
:1035C000E651FB4F80838091E90481115ECF81E059
:1035D0008093E80484EA8093BC001092E70428CF2B
:1035E00085EC8093BC001092E7048091E504803262
:1035F00030F4E091E504F0E0EB53FB4F1082609172
:10360000E50470E085EC94E0F0E0E0E009951092CC
:10361000E5040ECF1092E60438CF1F920F920FB63A
:103620000F9211242F933F934F935F936F937F9348
:103630008F939F93AF93BF93EF93FF93E091F10527
:10364000F091F205309749F0A685B7858585968D6E
:1036500091FF14C09C918923A1F4FF91EF91BF9138
:10366000AF919F918F917F916F915F914F913F911A
:103670002F910F900FBE0F901F9018959C9189234A
:1036800061F7A389B4899C918589809589238C935E
:10369000868997890197F1F7608D718DA685B78529
:1036A000558538E020E0CB010197F1F7822F90E0BB
:1036B00095958795282F4C91452309F02068315026
:1036C00091F7868D81FD20958091F00590E001961F
:1036D0008F7399273091EF05381799F0A091F00575
:1036E000B0E0AE59BB4F2C938093F005828D938D43
:1036F0000197F1F7A389B4898C919589892B8C93D3
:10370000ACCF868D8160868FF1CFCF92DF92EF9222
:10371000FF92CF931092F6051092F50598EEC92E00
:1037200093E0D92EE12CF12CC092F705D092F80548
:10373000E092F905F092FA0582E891E09093F405A1
:103740008093F30585EC90E0909300068093FF054D
:1037500084EC90E0909302068093010680EC90E068
:10376000909304068093030681EC90E09093060604
:103770008093050682EC90E09093080680930706FC
:1037800086EC90E090930A068093090610920C064E
:1037900010920D0610920E0610920F068CE090E02B
:1037A0000E94CA2226E0EDE0F1E0DC0101900D92DA
:1037B0002A95E1F726E0E3E1F1E0DC0116960190BD
:1037C0000D922A95E1F79093B0068093AF06109280
:1037D000930610929206C0929406D0929506E092BB
:1037E0009606F092970684E991E090939106809373
:1037F00090061092A7061092A6061092A9061092A3
:10380000A8061092AB061092AA061092AD0610926E
:10381000AC066091AE066E7F6D7F6093AE066695D6
:10382000617081E0682788E00E94D60861E088E046
:103830000E940409E9E0F7E0E491E093A006E5EFD7
:10384000F6E0E491F0E0EE0FFF1FED51F94F8591A6
:1038500094919093A2068093A10660E087E00E9475
:1038600004098091AE0681FD04C061E087E00E94FA
:10387000D60887E080939C06E8E0F7E0E491E093C7
:103880009D06E4EFF6E0E491F0E0EE0FFF1FE75253
:10389000F94F8591949190939F0680939E06109284
:1038A0003407109233078BE096E09093B207809331
:1038B000B1071092B3071092B40710924E0786EA30
:1038C00091E090933207809331071092360710925F
:1038D000350710924A0710924D0710924107109237
:1038E000420710924307109244078FEF80934B07D3
:1038F00080935007E4E5F7E08AE697E0CFEFC193C5
:103900008E179F07E1F78FE19BE090933A07809332
:10391000390786E89CE090933C0780933B0780E55D
:1039200093E190933E0780933D0789EB93E1909359
:10393000400780933F0730E020E040E069E085E306
:1039400097E00E941F0B109282071092810785E179
:1039500096E090936B0780936A0781EB96E09093D3
:103960006F0780936E0781E0809370071092710754
:1039700010928E071092AE078093AF078093B00726
:103980008EEA91E090936D0780936C0785E397E052
:103990000E94FC0C10927D0710927F07C0937E0757
:1039A000C0938007E0916C07F0916D070280F3816E
:1039B000E02D85E397E0099588E796E090938407EA
:1039C000809383071092910785E08093600786E0DB
:1039D00080936107C0935F07CF91FF90EF90DF90D6
:1039E000CF900895CF93DF93CDB7DEB7C45AD109F6
:1039F0000FB6F894DEBF0FBECDBF789484B5826059
:103A000084BD84B5816084BD85B5826085BD85B582
:103A1000816085BD80916E00816080936E00109200
:103A2000810080918100826080938100809181007B
:103A3000816080938100809180008160809380000C
:103A40008091B10084608093B1008091B00081606A
:103A50008093B00080917A00846080937A00809196
:103A60007A00826080937A0080917A0081608093EE
:103A70007A0080917A00806880937A001092C10069
:103A8000E0910306F091040682E08083E091FF0557
:103A9000F09100061082E0910106F091020680E1AB
:103AA000808310920B06E0910706F091080686E0ED
:103AB0008083E0910506F091060680818061808315
:103AC000E0910506F0910606808188608083E09190
:103AD0000506F0910606808180688083E0910506E6
:103AE000F091060680818F7D80836FE972E083EF1D
:103AF00095E00E943A1560E08BE00E94040962E0C4
:103B00008CE00E94040968EB72E083EF95E00E946C
:103B10003A1565ED72E083EF95E00E943A15AE012B
:103B20004F5F5F4F3A015093170540931605188673
:103B30001F821A86198682E090E09A83898383E047
:103B400090E09C838B831E821D828FE997E0C5578E
:103B5000DF4F99838883CB58D04062E082E00E9497
:103B6000040962E08B810E94040989819A81823074
:103B7000910509F42BC1039709F02AC181E00E9445
:103B8000AD068B819C818230910509F423C1039796
:103B900009F022C181E00E94AD0662E084E00E944B
:103BA000040969EE72E083EF95E00E943A1561E046
:103BB00089E00E9404090E94CB161092AB06109275
:103BC000AA061092A9061092A8061092A7061092B3
:103BD000A6068DE991E09093AD068093AC06909196
:103BE0009C06963108F047C02DEB30E03093A706D5
:103BF0002093A6062BE931E03093A9062093A8066E
:103C00002CE231E03093AB062093AA0620916800A5
:103C100084E0983048F031E09E3008F430E081E0F4
:103C200001C0880F3A95EAF7822B809368002DE651
:103C300030E0983050F02BE630E09E3030F02CE64B
:103C400030E0963110F030E020E03093A40620936D
:103C5000A306292F30E0983008F0C0C081E001C0F1
:103C6000880F9A95EAF78093A5068091AC0690910B
:103C7000AD060197F1F70E947A060E947A066DEF71
:103C800072E083EF95E00E943A150E94AE1768EC4F
:103C900070E080E090E00E9465090E94AE1768EC39
:103CA00070E080E090E00E9465090E94AE1768EC29
:103CB00070E080E090E00E94650968EE73E080E0CB
:103CC00090E00E94650910929D0510929C050CE100
:103CD00015E0F80111928F01F5E00C391F07C9F7C3
:103CE00081E090E09093AC058093AB05E0913907BB
:103CF000F0913A0730E020E040E06AE085E397E0A9
:103D0000099585E397E00E945C1785E397E00E94A0
:103D100032178111FACF60E085E397E00E94E1124B
:103D2000E0913907F0913A0730E020E040E06BE0A5
:103D300085E397E009956AE070E080E090E00E94FA
:103D4000650964E273E083EF95E00E943A150E94F2
:103D5000A3180E94C1160E94C11664EF71E080E0B2
:103D600090E00E9465097FE1272E312C88248394FE
:103D7000912C65E0462E512C43E0E42EF12C50ECC2
:103D8000C52ED12C84E00E94AD08892B09F046C0D5
:103D900034EFA32EBB24B39484E00E94AD08892B9A
:103DA00051F181E090E02091AB053091AC0581307C
:103DB000910509F0B0C02130310509F084C082E0DE
:103DC00090E09093AC058093AB0584C080E0D7CEA3
:103DD0008FEFD5CE80E0DFCE8FEFDDCE9E3040F48A
:103DE0002850310981E001C0880F2A95EAF73BCFBE
:103DF0002E503109F7CF63E070E080E090E00E9440
:103E0000650984E00E94AD08019759F241E0A41AC7
:103E1000B10809F0C1CF82E090E0C5CF20911A052A
:103E200030911B05809118059091190528173907C5
:103E300009F446C0FC01E21BF30B1E161F06F4F545
:103E400033E020E090931B0580931A05832F922F77
:103E5000009709F0A8CF0E94ED168CE00E94AD08F3
:103E6000892BF9F464E670E080E090E00E94650937
:103E70008CE00E94AD08892BA1F468E274E080E92F
:103E800096E00E94901468E770E080E090E00E9465
:103E900065090E94D5166BE274E083EF95E00E94FD
:103EA0003A1580E090E0892B09F46CCF0E94E1077D
:103EB000882309F461CF0E9400005BCF34E0C1CFBA
:103EC00030E020E0C3CF22303105B9F4F092AC05E8
:103ED000E092AB058091AB059091AC0582309105E5
:103EE00009F496C00CF040C0009709F47DC1019719
:103EF00009F0B1CF0E94A318AECF2330310519F4D9
:103F000084E090E05ECF2430310521F71092AC05BB
:103F10001092AB05DFCF8330910551F480915804A6
:103F20009091590401969093590480935804D2CFEC
:103F30008430910531F4809158049091590401978F
:103F4000F2CF029739F62430310509F4BFCF233080
:103F5000310509F434CF2230310509F0BBCF9092FE
:103F6000AC058092AB05B6CF8330910509F493C0C0
:103F7000049709F070CF8091A905813009F4E1C060
:103F800008F495C0823009F066CF80910201882341
:103F900051F08091A3059091A405909359048093CA
:103FA00058041092020185E397E00E945C178DE7A8
:103FB00093E00E9424148091580490915904843015
:103FC00091050CF408C1F0925904E092580485E17F
:103FD00097E00E944C1044E853E062E38AE00E94BC
:103FE000D91280915804909159040E94FD17AC0198
:103FF00062E38AE50E94D91264E088E594E00E94B9
:10400000221885E397E00E9432178111D0CF23CF89
:104010000E94CB1685E397E00E945C1783E393E050
:104020000E94241480915804909159048230910583
:104030005CF1909259048092580485E197E00E94C7
:104040004C1046E353E062E28BE10E94D91249E44E
:1040500053E066E38BE10E94D91264E18091580439
:10406000909159040E94770F62E088E594E00E94E5
:10407000221885E397E00E9432178111CFCF8091FB
:1040800058048093AA05E7CE0197B9F2109259041B
:1040900010925804D2CF68E574E08091AA050E947E
:1040A00047188093A90581E080930201D4CE8091C6
:1040B0000201882351F08091A7059091A805909363
:1040C0005904809358041092020185E397E00E94FE
:1040D0005C1789E593E00E94241480915804909124
:1040E0005904863091052CF150925904409258049D
:1040F00085E197E00E944C1040E653E062E38AE0DD
:104100000E94D91280915804909159040E94FD1781
:10411000AC0162E380E50E94D91266E088E594E094
:104120000E94221885E397E00E9432178111D1CFB7
:1041300092CE18161906E4F21092590410925804FF
:10414000D7CF80910201882351F08091A5059091ED
:10415000A60590935904809358041092020185E3B8
:1041600097E00E945C178AE693E00E9424148091F5
:10417000580490915904803291052CF130925904E1
:104180002092580485E197E00E944C1041E753E0EB
:1041900062E38AE00E94D9128091580490915904F8
:1041A0000E94FD17AC0162E38AE50E94D91260E229
:1041B00088E594E00E94221885E397E00E94321778
:1041C0008111D1CF48CE18161906E4F21092590485
:1041D00010925804D7CF181619060CF4F8CE109286
:1041E000590410925804F3CE8091A905813009F446
:1041F000C3C008F456C0823009F41DC10E94AE1736
:1042000068EC70E080E090E00E9465090E94AE17C3
:1042100068EC70E080E090E00E9465090E94AE17B3
:1042200068EC70E080E090E00E94650968EE73E061
:1042300080E090E00E94650910929D0510929C0517
:10424000ECE1F5E011920E171F07E1F78091A00550
:10425000877090E09093A8058093A7058091A105B1
:1042600090E09093A6058093A5058091A2058370A8
:1042700090E09093A4058093A30581E080930201D0
:104280001092590410925804F092AC05E092AB05DC
:1042900068E574E08091AA050E9447188093A905FB
:1042A000DACD6FE873E083EF95E00E94901480917F
:1042B0005804909159040E9402158091A005887FAE
:1042C000B0905804B82A8B2D0E94EB146DE272E076
:1042D00083EF95E00E943A15C756DF4FD982C88216
:1042E000C959D04080919E0590E0C556DF4F998313
:1042F0008883CB59D04080919F0590E0C356DF4F13
:1043000099838883CD59D0408B2D90E0C156DF4FE3
:1043100099838883CF59D0408091A10590E0CF55F3
:10432000DF4F99838883C15AD0408091A20590E0E5
:10433000CD55DF4F99838883C35AD0402AE0B22EEF
:104340004BE953E066E070E0CE0187569F4F0E9434
:104350006E17882339F06EE973E083EF95E00E94D1
:104360003A154CCF64EB73E083EF95E00E943A1569
:10437000BA94B110E5CF42CF67EC73E083EF95E0DC
:104380000E94901480915804909159040E94021543
:1043900080915804909159048032910510F08FE17A
:1043A00090E0C357DF4FD982C882CD58D0402091CA
:1043B0009E0530E0C157DF4F39832883CF58D04066
:1043C00020919F0530E0CF56DF4F39832883C159B4
:1043D000D0402091A00530E0CD56DF4F39832883AF
:1043E000C359D040CB56DF4F99838883C559D040FD
:1043F0008091A20590E0C956DF4F99838883C75901
:10440000D0409AE0B92E4BE953E066E070E0CE016F
:1044100083579F4F0E946E17882319F068ED73E051
:104420009CCF6AEE73E083EF95E00E943A15BA9450
:10443000B110E9CFE3CE69EF73E083EF95E00E941E
:10444000901480915804909159040E940215809113
:10445000A2058C7F90915804892BDA82C982209121
:104460009E0530E03C832B8320919F0530E03E8306
:104470002D832091A00530E038872F832091A1055E
:1044800030E03A87298790E09C878B878AE0B82EB6
:104490004BE953E066E070E0C3010E946E17882389
:1044A00019F069E074E059CF6AE174E083EF95E0B8
:1044B0000E943A15BA94B110EBCFA0CE84E991E0F6
:1044C00090939106809390068091F1059091F2056A
:1044D0008059964071F4E091A306F091A406908172
:1044E0008091A5068095892380831092F205109211
:1044F000F105089597FB072E16F4009407D077FD79
:1045000009D00E94B02207FC05D03EF49095819519
:104510009F4F0895709561957F4F0895A1E21A2EDF
:10452000AA1BBB1BFD010DC0AA1FBB1FEE1FFF1F57
:10453000A217B307E407F50720F0A21BB30BE40BA7
:10454000F50B661F771F881F991F1A9469F76095EE
:104550007095809590959B01AC01BD01CF010895A8
:10456000AA1BBB1B51E107C0AA1FBB1FA617B70799
:1045700010F0A61BB70B881F991F5A95A9F78095B5
:104580009095BC01CD010895EE0FFF1F0590F491A9
:10459000E02D09940F931F93CF93DF938230910501
:1045A00010F482E090E0E091B707F091B80730E0B6
:1045B00020E0B0E0A0E0309799F42115310509F42E
:1045C0004AC0281B390B24303105D8F58A819B81DC
:1045D0006115710589F1FB0193838283FE0111C08E
:1045E000408151810281138148175907E0F0481733
:1045F000590799F4109761F012960C93129713963D
:104600001C933296CF01DF91CF911F910F910895A6
:104610000093B7071093B807F4CF2115310551F077
:104620004217530738F0A901DB019A01BD01DF01F0
:10463000F801C1CFEF01F9CF9093B8078093B70786
:10464000CDCFFE01E20FF31F8193919322503109E8
:1046500039832883D7CF2091B5073091B607232B14
:1046600041F42091090130910A013093B60720935B
:10467000B50720910701309108012115310541F45A
:104680002DB73EB740910B0150910C01241B350B07
:10469000E091B507F091B607E217F307A0F42E1BDF
:1046A0003F0B2817390778F0AC014E5F5F4F241796
:1046B000350748F04E0F5F1F5093B6074093B5077C
:1046C000819391939FCFF0E0E0E09CCFCF93DF9375
:1046D0000097E9F0FC01329713821282A091B7078C
:1046E000B091B807ED0130E020E01097A1F42081EF
:1046F0003181820F931F2091B5073091B60728179B
:10470000390709F061C0F093B607E093B507DF9170
:10471000CF910895EA01CE17DF07E8F54A815B8162
:104720009E0141155105B1F7E901FB83EA834991E7
:104730005991C40FD51FEC17FD0761F48081918159
:104740000296840F951FE901998388838281938162
:104750009B838A83F0E0E0E012968D919C91139701
:104760000097B9F52D913C911197CD010296820FDA
:10477000931F2091B5073091B6072817390739F6EE
:10478000309751F51092B8071092B707B093B6075B
:10479000A093B507BCCFD383C28340815181840FDE
:1047A000951FC817D90761F44E5F5F4F88819981C3
:1047B000480F591F518340838A819B819383828351
:1047C0002115310509F0B0CFF093B807E093B70792
:1047D0009ECFFD01DC01C0CF13821282D7CFDC0156
:1047E00001C06D9341505040E0F70895FB01DC019A
:1047F00001900D920020E1F70895FB01519155239E
:10480000A9F0BF01DC014D9145174111E1F759F4C1
:10481000CD010190002049F04D9140154111C9F39F
:10482000FB014111EFCF81E090E00197089515E081
:10483000C0EED5E004C0FE010E94C4222196C13E14
:08484000D107C9F7F894FFCF7E
:10484800EFBE01980998090000B9078000C100C1AE
:1048580000C100C300C300C3001815A015C019FF8C
:104868001815A115C819FF1815AE19FF1815AF1995
:10487800FF1815AE15D5168015A8163F15D31600C6
:104888001540158D16141520160015A115C815DA32
:104898001612158116CF15D916F115DB1640152EEF
:1048A80015A415A619FF0001140A64643232001217
:1048B8007A000004289610080000800040000000DC
:1048C800000017087207A4076408D507B307C707CD
:1048D800000000000C0A72078D14CA09680A800AD1
:1048E800F4090000000063143B148D148C14FC0CB4
:1048F800960DF00C0D0A00506F707065642066729A
:104908006F6D20656D7074792071756575650051DE
:10491800756575652066756C6C2C206F7665727789
:10492800726974696E67210044656661756C7420EC
:10493800697320626164006D6F64656C5F6E6F728D
:104948006D616C006D6F64656C5F73657474696E1E
:10495800670074616B652070686F746F202E2E2E4F
:104968002E2E2E2E006161616161616100255E2538
:104978005E255E255E255E255E255E255E255E2517
:104988005E255E255E255E25002F004D312E310007
:10499800312E536574416972537065656400322E17
:1049A8005365744169724368616E6E656C00332E9D
:1049B80053657453656E64506F776572004D322E7F
:1049C80031004D61696E00615F7370643A20006167
:1049D8005F6368613A2000615F64426D3A20002D90
:1049E8002D2D2D2D2D2D2D2D2D535445502D2D2D67
:1049F8002D2D2D2D2D2D2D0074616B652070686F68
:104A0800746F206B65792070696E20696E697420F7
:104A18005B6F6B5D0070686F746F2070696E2069E2
:104A28006E6974205B6F6B5D00656E636F64654BC8
:104A3800657920696E6974205B6F6B5D00776972B8
:104A4800656C65737320736F667477617265207324
:104A5800657269616C2070696E20696E6974205B8B
:104A68006F6B5D006D656E7520696E6974205B6F94
:104A78006B5D004D3100312E576972656C6573733B
:104A88002053657474696E6700322E44656C6179D1
:104A98002053657474696E67004D312E312E3100D4
:104AA80041697253706565643A004D312E312E327A
:104AB800004169724368616E6E656C3A004D312E33
:104AC800312E330053656E64506F7765723A00413A
:104AD80069725370656564203D20004F4B00536533
:104AE800742041697241706565642053756363651C
:104AF80073732E0053657420416972417065656453
:104B0800204661696C2E005365744169724368617F
:104B18006E6E656C203D2000536574204368616E9D
:104B280020537563636573732E005365742043685F
:104B3800616E204661696C2E0053657453656E641E
:104B4800506F776572203D20005365742064426D74
:104B580020537563636573732E0053657420644234
:104B68006D204661696C2E006131006B6579536375
:044B7800616E00006A
:00000001FF
